{
  "contractName": "Gallery",
  "abi": [
    {
      "constant": true,
      "inputs": [],
      "name": "tips",
      "outputs": [
        {
          "name": "",
          "type": "uint256"
        }
      ],
      "payable": false,
      "stateMutability": "view",
      "type": "function"
    },
    {
      "constant": false,
      "inputs": [],
      "name": "tip",
      "outputs": [],
      "payable": true,
      "stateMutability": "payable",
      "type": "function"
    },
    {
      "constant": false,
      "inputs": [
        {
          "name": "index",
          "type": "uint256"
        }
      ],
      "name": "addLike",
      "outputs": [],
      "payable": true,
      "stateMutability": "payable",
      "type": "function"
    },
    {
      "constant": true,
      "inputs": [
        {
          "name": "",
          "type": "uint256"
        }
      ],
      "name": "pictures",
      "outputs": [
        {
          "name": "title",
          "type": "bytes32"
        },
        {
          "name": "likes",
          "type": "uint256"
        },
        {
          "name": "ownerId",
          "type": "address"
        },
        {
          "name": "url",
          "type": "string"
        },
        {
          "name": "lengthKey",
          "type": "uint256"
        }
      ],
      "payable": false,
      "stateMutability": "view",
      "type": "function"
    },
    {
      "constant": true,
      "inputs": [],
      "name": "getPicturesCount",
      "outputs": [
        {
          "name": "",
          "type": "uint256"
        }
      ],
      "payable": false,
      "stateMutability": "view",
      "type": "function"
    },
    {
      "constant": false,
      "inputs": [
        {
          "name": "name",
          "type": "string"
        },
        {
          "name": "index",
          "type": "uint256"
        },
        {
          "name": "comment",
          "type": "string"
        }
      ],
      "name": "addComment",
      "outputs": [],
      "payable": false,
      "stateMutability": "nonpayable",
      "type": "function"
    },
    {
      "constant": false,
      "inputs": [
        {
          "name": "title",
          "type": "bytes32"
        },
        {
          "name": "url",
          "type": "string"
        }
      ],
      "name": "addPicture",
      "outputs": [],
      "payable": false,
      "stateMutability": "nonpayable",
      "type": "function"
    },
    {
      "constant": true,
      "inputs": [],
      "name": "description",
      "outputs": [
        {
          "name": "",
          "type": "string"
        }
      ],
      "payable": false,
      "stateMutability": "view",
      "type": "function"
    },
    {
      "constant": true,
      "inputs": [],
      "name": "owner",
      "outputs": [
        {
          "name": "",
          "type": "address"
        }
      ],
      "payable": false,
      "stateMutability": "view",
      "type": "function"
    },
    {
      "constant": true,
      "inputs": [],
      "name": "collectionName",
      "outputs": [
        {
          "name": "",
          "type": "string"
        }
      ],
      "payable": false,
      "stateMutability": "view",
      "type": "function"
    },
    {
      "inputs": [
        {
          "name": "name",
          "type": "string"
        },
        {
          "name": "creator",
          "type": "address"
        },
        {
          "name": "newdescription",
          "type": "string"
        }
      ],
      "payable": false,
      "stateMutability": "nonpayable",
      "type": "constructor"
    }
  ],
  "bytecode": "0x6060604052341561000f57600080fd5b604051610e8d380380610e8d8339810160405280805182019190602001805190602001909190805182019190505082600090805190602001906100539291906100b4565b50806001908051906020019061006a9291906100b4565b5081600360006101000a81548173ffffffffffffffffffffffffffffffffffffffff021916908373ffffffffffffffffffffffffffffffffffffffff160217905550505050610159565b828054600181600116156101000203166002900490600052602060002090601f016020900481019282601f106100f557805160ff1916838001178555610123565b82800160010185558215610123579182015b82811115610122578251825591602001919060010190610107565b5b5090506101309190610134565b5090565b61015691905b8082111561015257600081600090555060010161013a565b5090565b90565b610d25806101686000396000f3006060604052600436106100a4576000357c0100000000000000000000000000000000000000000000000000000000900463ffffffff1680631a4e1e78146100a95780632755cd2d146100d2578063378a35cd146100dc5780634a291142146100f457806359469358146101fd57806368b99277146102265780636a41371e146102cf5780637284e416146103395780638da5cb5b146103c7578063e5326ab11461041c575b600080fd5b34156100b457600080fd5b6100bc6104aa565b6040518082815260200191505060405180910390f35b6100da6104b0565b005b6100f2600480803590602001909190505061052e565b005b34156100ff57600080fd5b6101156004808035906020019091905050610668565b6040518086600019166000191681526020018581526020018473ffffffffffffffffffffffffffffffffffffffff1673ffffffffffffffffffffffffffffffffffffffff168152602001806020018381526020018281038252848181546001816001161561010002031660029004815260200191508054600181600116156101000203166002900480156101ea5780601f106101bf576101008083540402835291602001916101ea565b820191906000526020600020905b8154815290600101906020018083116101cd57829003601f168201915b5050965050505050505060405180910390f35b341561020857600080fd5b6102106106cc565b6040518082815260200191505060405180910390f35b341561023157600080fd5b6102cd600480803590602001908201803590602001908080601f0160208091040260200160405190810160405280939291908181526020018383808284378201915050505050509190803590602001909190803590602001908201803590602001908080601f016020809104026020016040519081016040528093929190818152602001838380828437820191505050505050919050506106d9565b005b34156102da57600080fd5b61033760048080356000191690602001909190803590602001908201803590602001908080601f016020809104026020016040519081016040528093929190818152602001838380828437820191505050505050919050506107ff565b005b341561034457600080fd5b61034c610963565b6040518080602001828103825283818151815260200191508051906020019080838360005b8381101561038c578082015181840152602081019050610371565b50505050905090810190601f1680156103b95780820380516001836020036101000a031916815260200191505b509250505060405180910390f35b34156103d257600080fd5b6103da610a01565b604051808273ffffffffffffffffffffffffffffffffffffffff1673ffffffffffffffffffffffffffffffffffffffff16815260200191505060405180910390f35b341561042757600080fd5b61042f610a27565b6040518080602001828103825283818151815260200191508051906020019080838360005b8381101561046f578082015181840152602081019050610454565b50505050905090810190601f16801561049c5780820380516001836020036101000a031916815260200191505b509250505060405180910390f35b60025481565b3373ffffffffffffffffffffffffffffffffffffffff16600360009054906101000a900473ffffffffffffffffffffffffffffffffffffffff1673ffffffffffffffffffffffffffffffffffffffff161415151561050d57600080fd5b60003411151561051c57600080fd5b34600260008282540192505081905550565b60048181548110151561053d57fe5b906000526020600020906007020160060160003373ffffffffffffffffffffffffffffffffffffffff1673ffffffffffffffffffffffffffffffffffffffff16815260200190815260200160002060009054906101000a900460ff161515156105a557600080fd5b60016004828154811015156105b657fe5b906000526020600020906007020160060160003373ffffffffffffffffffffffffffffffffffffffff1673ffffffffffffffffffffffffffffffffffffffff16815260200190815260200160002060006101000a81548160ff02191690831515021790555060048181548110151561062a57fe5b906000526020600020906007020160010160008154809291906001019190505550600034111561066557346002600082825401925050819055505b50565b60048181548110151561067757fe5b90600052602060002090600702016000915090508060000154908060010154908060020160009054906101000a900473ffffffffffffffffffffffffffffffffffffffff169080600301908060040154905085565b6000600480549050905090565b6106e1610ac5565b6060604051908101604052803373ffffffffffffffffffffffffffffffffffffffff1681526020018581526020018381525090508060048481548110151561072557fe5b9060005260206000209060070201600501600060048681548110151561074757fe5b9060005260206000209060070201600401600081548092919060010191905055815260200190815260200160002060008201518160000160006101000a81548173ffffffffffffffffffffffffffffffffffffffff021916908373ffffffffffffffffffffffffffffffffffffffff16021790555060208201518160010190805190602001906107d8929190610b09565b5060408201518160020190805190602001906107f5929190610b09565b5090505050505050565b610807610b89565b3373ffffffffffffffffffffffffffffffffffffffff16600360009054906101000a900473ffffffffffffffffffffffffffffffffffffffff1673ffffffffffffffffffffffffffffffffffffffff1614151561086357600080fd5b60a06040519081016040528084600019168152602001600081526020013373ffffffffffffffffffffffffffffffffffffffff16815260200183815260200160008152509050600480548060010182816108bd9190610bd8565b91600052602060002090600702016000839091909150600082015181600001906000191690556020820151816001015560408201518160020160006101000a81548173ffffffffffffffffffffffffffffffffffffffff021916908373ffffffffffffffffffffffffffffffffffffffff1602179055506060820151816003019080519060200190610950929190610b09565b5060808201518160040155505050505050565b60018054600181600116156101000203166002900480601f0160208091040260200160405190810160405280929190818152602001828054600181600116156101000203166002900480156109f95780601f106109ce576101008083540402835291602001916109f9565b820191906000526020600020905b8154815290600101906020018083116109dc57829003601f168201915b505050505081565b600360009054906101000a900473ffffffffffffffffffffffffffffffffffffffff1681565b60008054600181600116156101000203166002900480601f016020809104026020016040519081016040528092919081815260200182805460018160011615610100020316600290048015610abd5780601f10610a9257610100808354040283529160200191610abd565b820191906000526020600020905b815481529060010190602001808311610aa057829003601f168201915b505050505081565b606060405190810160405280600073ffffffffffffffffffffffffffffffffffffffff168152602001610af6610c0a565b8152602001610b03610c0a565b81525090565b828054600181600116156101000203166002900490600052602060002090601f016020900481019282601f10610b4a57805160ff1916838001178555610b78565b82800160010185558215610b78579182015b82811115610b77578251825591602001919060010190610b5c565b5b509050610b859190610c1e565b5090565b60a0604051908101604052806000801916815260200160008152602001600073ffffffffffffffffffffffffffffffffffffffff168152602001610bcb610c0a565b8152602001600081525090565b815481835581811511610c0557600702816007028360005260206000209182019101610c049190610c43565b5b505050565b602060405190810160405280600081525090565b610c4091905b80821115610c3c576000816000905550600101610c24565b5090565b90565b610cae91905b80821115610caa5760008082016000905560018201600090556002820160006101000a81549073ffffffffffffffffffffffffffffffffffffffff0219169055600382016000610c999190610cb1565b600482016000905550600701610c49565b5090565b90565b50805460018160011615610100020316600290046000825580601f10610cd75750610cf6565b601f016020900490600052602060002090810190610cf59190610c1e565b5b505600a165627a7a72305820da22ca2ca85e53b55dda97df6e93fcbc1ef9c648785dbcbc5a33e4e287e8da4e0029",
  "source": "pragma solidity ^0.4.19;\n\n\ncontract GalleryFactory {\n    address[] public deployedGallerys;\n\n    function createGallery(string title, string description) public {\n        address newGallery = new Gallery(title, msg.sender, description);\n        deployedGallerys.push(newGallery);\n    }\n\n    function getDeployedGallerys() public view returns (address[]) {\n        return deployedGallerys;\n    }\n}\n\ncontract Gallery {\n\n   struct Commenter {\n       address id; \n       string name;\n       string comment;\n   }\n\n   // This is a type for a single picture.\n   struct Picture {\n        bytes32 title;   // short name (up to 32 bytes)\n        uint likes; // number of accumulated votes\n        address ownerId;\n        string url;\n        uint lengthKey;\n        mapping(uint => Commenter) comments;\n        mapping(address => bool) likers;\n    }\n\n    string public collectionName;\n    string public description;\n    uint public tips;\n    address public owner;\n    Picture[] public pictures;\n\n    function Gallery(string name, address creator, string newdescription) public {\n       collectionName = name;\n       description = newdescription;\n       owner = creator;\n    }\n    \n    function getPicturesCount() public view returns (uint) {\n        return pictures.length;\n    }\n\n    function addLike(uint index) public payable {\n        require(!pictures[index].likers[msg.sender]);\n        pictures[index].likers[msg.sender] = true;\n        pictures[index].likes++;\n        \n        if(msg.value > 0){\n            tips += msg.value;\n        }\n    }\n    \n    function tip() public payable {\n        require(owner != msg.sender);\n        require(msg.value > 0);\n        tips += msg.value;\n    }\n    \n    function addComment(string name, uint index, string comment) public {\n        Commenter memory sender = Commenter({\n           name: name, \n           comment: comment,\n           id: msg.sender\n        });\n        pictures[index].comments[pictures[index].lengthKey++] = sender;\n    }\n\n   function addPicture(bytes32 title, string url) public {\n        require(owner == msg.sender);\n        Picture memory sender = Picture({\n           title: title, \n           likes: 0,\n           ownerId: msg.sender,\n           url: url,\n           lengthKey: 0\n        });\n        pictures.push(sender);\n   }\n\n}",
  "sourcePath": "/Users/chriswallace/shizzz/yarn-workspaces-web-native/packages/shared/contracts/GalleryFactor.sol",
  "compiler": {
    "name": "solc",
    "version": "0.4.19+commit.c4cbbb05.Emscripten.clang"
  },
  "schemaVersion": "1.0.1",
  "updatedAt": "2018-03-14T23:19:37.553Z"
}